S01A000070635F636F6E74726F6C65645F726F626F742E7372656389
S11300000C942A000C943C000C943C000C943C008E
S11300100C943C000C943C000C943C000C943C006C
S11300200C943C000C943C000C943C000C943C005C
S11300300C943C000C943C000C943C000C943C004C
S11300400C943C000C943C000C943C000C943C003C
S11300500C943C0011241FBECFE5D4E0DEBFCDBF1D
S113006020E0A0E6B0E001C01D92A036B207E1F79F
S11300700E945C000C9480000C940000929A939867
S1130080949A959808959298939A9498959A089525
S113009092989398949A95980895929A939894988C
S11300A095980895929893989498959808955F9B3D
S11300B0FECF8CB15F9A08958FEF81BB599A549A01
S11300C0539A86E880BD10BC8CE089B90E94570021
S11300D08F7D873519F40E943E00F8CF813419F4DE
S11300E00E944800F3CF843419F40E944D00EECFEF
S11300F0833519F40E944300E9CF0E945200E6CFF1
S1070100F894FFCF9D
S9030000FC
